:100000000C9455030C9460090C9487090C947D039F
:100010000C947D030C947D030C947D030C94E008F8
:100020000C947D030C947D030C947D030C947D0350
:100030000C947D030C94740B0C947D030C947D0341
:100040000C94AE090C947D030C9471040C94A904D7
:100050000C947D030C947D030C947D030C947D0320
:100060000C947D030C947D03020000000800020143
:10007000000003040700000000000000000102046B
:10008000081020408001020408102001020408101A
:100090002004040404040404040202020202020311
:1000A00003030303030000000023002600290000CF
:1000B000000000250028002B00000000002400277D
:1000C000002A003F065B4F666D7D077F6F777C39A6
:1000D0005E797100000000003E5B4F5B3E3E6B4F5F
:1000E0006B3E1C3E7C3E1C183C7E3C181C577D57CA
:1000F0001C1C5E7F5E1C00183C1800FFE7C3E7FF76
:100100000018241800FFE7DBE7FF30483A060E2608
:1001100029792926407F050507407F05253F5A3C60
:10012000E73C5A7F3E1C1C08081C1C3E7F14227FA3
:1001300022145F5F005F5F06097F017F006689957B
:100140006A606060606094A2FFA29408047E040864
:1001500010207E201008082A1C08081C2A08081EE7
:10016000101010100C1E0C1E0C30383E3830060ECD
:100170003E0E06000000000000005F0000000700C7
:100180000700147F147F14242A7F2A122313086483
:100190006236495620500008070300001C22410027
:1001A0000041221C002A1C7F1C2A08083E08080067
:1001B0008070300008080808080000606000201007
:1001C0000804023E5149453E00427F4000724949C1
:1001D00049462141494D331814127F1027454545A2
:1001E000393C4A49493141211109073649494936C3
:1001F000464949291E000014000000403400000058
:100200000814224114141414140041221408020189
:100210005909063E415D594E7C1211127C7F4949B5
:1002200049363E414141227F4141413E7F49494952
:10023000417F090909013E414151737F0808087F48
:1002400000417F41002040413F017F081422417F4F
:10025000404040407F021C027F7F0408107F3E41E7
:1002600041413E7F090909063E4151215E7F09193E
:100270002946264949493203017F01033F40404056
:100280003F1F2040201F3F4038403F631408146345
:1002900003047804036159494D43007F4141410201
:1002A00004081020004141417F0402010204404043
:1002B000404040000307080020545478407F284401
:1002C00044383844444428384444287F38545454EB
:1002D0001800087E090218A4A49C787F08040478FA
:1002E00000447D40002040403D007F102844000035
:1002F000417F40007C047804787C0804047838440A
:10030000444438FC1824241818242418FC7C0804BD
:100310000408485454542404043F44243C404020DE
:100320007C1C2040201C3C4030403C442810284489
:100330004C9090907C4464544C440008364100003A
:1003400000770000004136080002010204023C264A
:1003500023263C1EA1A161123A4040207A38545411
:100360005559215555794122545478422155547894
:100370004020545579400C1E52721239555555592A
:10038000395454545939555454580000457C41004F
:1003900002457D420001457C407D1211127DF0280E
:1003A0002528F07C545545002054547C547C0A097F
:1003B0007F4932494949323A4444443A324A4848EA
:1003C000303A4141217A3A42402078009DA0A07DF8
:1003D0003D4242423D3D4040403D3C24FF242448B4
:1003E0007E4943662B2FFC2F2BFF0929F620C0885E
:1003F0007E090320545479410000447D413048482F
:100400004A32384040227A007A0A0A727D0D193148
:100410007D2629292F28262929292630484D4020A4
:10042000380808080808080808382F10C8ACBA2F80
:10043000102834FA00007B000008142A1422221429
:100440002A14085500550055AA55AA55AAFF55FF6C
:1004500055FF000000FF00101010FF00141414FFDF
:10046000001010FF00FF1010F010F0141414FC0026
:100470001414F700FF0000FF00FF1414F404FC1430
:100480001417101F10101F101F1414141F00101029
:1004900010F0000000001F101010101F101010109E
:1004A000F010000000FF101010101010101010FFBE
:1004B00010000000FF140000FF00FF00001F1017D5
:1004C0000000FC04F414141710171414F404F400BE
:1004D00000FF00F714141414141414F700F7141484
:1004E00014171410101F101F141414F4141010F00B
:1004F00010F000001F101F0000001F14000000FC7F
:10050000140000F010F01010FF10FF141414FF146A
:100510001010101F00000000F010FFFFFFFFFFF0A1
:10052000F0F0F0F0FFFFFF0000000000FFFF0F0FF2
:100530000F0F0F3844443844FC4A4A4A347E0202C2
:100540000606027E027E0263554941633844443CFC
:1005500004407E201E2006027E020299A5E7A5998E
:100560001C2A492A1C4C7201724C304A4D4D3030C5
:1005700048784830BC625A463D3E494949007E01B0
:1005800001017E2A2A2A2A2A44445F444440514ACF
:10059000444040444A51400000FF0103E080FF0016
:1005A0000008086B6B083612362436060F090F0652
:1005B000000018180000001010003040FF0101007A
:1005C0001F01011E00191D1712003C3C3C3C00009D
:1005D0000000003135202D206F6F70732000313402
:1005E000202D206F6F707320003133202D206F6F0E
:1005F000707320003132202D206F6F707320003116
:1006000031202D206F6F707320003130202D206F2E
:100610006F7073200059414E4E49434B20004A4FA2
:100620005244414E20004D494E554954203D5E2EC6
:100630005E3D20004D415249414E4E4520004C49FF
:100640004E4453415920032000504958454C2C201A
:100650004150504C452C20534952492026204C45AE
:100660004941203D5E2E5E3D200057414C54484597
:10067000522000434152414D454C203D5E2E5E3D8F
:100680002000454C4F444945200030202D2067690B
:100690006674206E756D626572206E6F742073656E
:1006A00074200000D9044905BF0F11241FBECFEFED
:1006B000D8E0DEBFCDBF11E0A0E0B1E0EAEDFBE2A3
:1006C00002C005900D92A039B107D9F722E0A0E948
:1006D000B1E001C01D92A43BB207E1F713E0C5E50C
:1006E000D3E004C02197FE010E949112C235D107C8
:1006F000C9F70E9455050C94EB150C940000FC0101
:10070000918D228D892F90E0805C9F4F821B9109F3
:100710008F7399270895FC01918D828D981731F080
:10072000828DE80FF11D858D90E008958FEF9FEF8A
:100730000895FC01918D828D981761F0828DDF0103
:10074000A80FB11D5D968C91928D9F5F9F73928FC4
:1007500090E008958FEF9FEF0895FC01238D348D75
:10076000231738F08FE390E0821B9109830F911DCE
:100770000895832F90E0821B9109019708958FECD3
:1007800094E0892B49F080E090E0892B29F00E94C9
:10079000CF0481110E9400000895FC01848DDF01C7
:1007A000A80FB11DA35ABF4F8C91248D30E02F5F4D
:1007B0003F4F2F733078332334F421503109206CAC
:1007C0003F6F2F5F3F4F248FA689B7898C93A089F5
:1007D000B1898C91837080648C93938D848D9813F0
:1007E00006C00288F389E02D80818F7D8083089583
:1007F000CF93DF93EC01888D8823D9F0EA89FB89B8
:10080000808185FD05C0A889B9898C9186FD11C0BC
:100810000FB607FCF5CF808185FFF2CF04C0CE0173
:100820000E94CD03EBCFA889B9898C9185FFE8CFD1
:10083000F6CFDF91CF9108950F931F93CF93DF935E
:10084000EC0181E0888F9B8D8C8D981326C0E88900
:10085000F989808185FD32C020C08C8D18130CC0B1
:100860000FB607FCFACFE889F989808185FFF5CFBB
:10087000CE010E94CD03F1CF8B8DFE01E80FF11D5B
:10088000E35AFF4F00839FB7F8941B8FEA89FB89D7
:100890008081806280839FBF1DC02B8D30E02F5FE1
:1008A0003F4F2F733078332334F421503109206CBB
:1008B0003F6F2F5F3F4F062F122FCFCF9FB7F89478
:1008C000EE89FF896083E889F9898081837080647B
:1008D00080839FBF81E090E0DF91CF911F910F91C6
:1008E00008951F920F920FB60F9211242F938F939A
:1008F0009F93AF93BF93EF93FF93E091A001F0918B
:10090000A101808182FD14C0E0E9F1E0A689B789E8
:100910002C91818D8F5F8F73928D891771F0DF011C
:10092000E18DF0E0E057FE4F258F59968C9305C07E
:10093000E091A601F091A7018081FF91EF91BF9115
:10094000AF919F918F912F910F900FBE0F901F909D
:1009500018951F920F920FB60F9211242F933F9369
:100960004F935F936F937F938F939F93AF93BF93B7
:10097000EF93FF9380E991E00E94CD03FF91EF9107
:10098000BF91AF919F918F917F916F915F914F91A7
:100990003F912F910F900FBE0F901F90189580E9F7
:1009A00091E00E947F0321E0892B09F420E0822F4F
:1009B0000895E0E9F1E01382128288EE93E0A0E06E
:1009C000B0E084839583A683B7838DE091E0918323
:1009D000808385EC90E09587848784EC90E097870E
:1009E000868780EC90E0918B808B81EC90E0938BFC
:1009F000828B82EC90E0958B848B86EC90E0978BD9
:100A0000868B118E128E138E148E089508958F92F8
:100A10009F92AF92BF92CF92DF92EF92FF920F938D
:100A20001F93CF93DF936C017B014C0182E0880E12
:100A3000911C5601E5E0AE0EB11C00E010E0F4019F
:100A400061914F014AE050E0C7010E940906EC01A4
:100A50006EE2C7010E9493058C0F9D1F080F191F9E
:100A60008A149B0461F74AE050E0F6016581C701F2
:100A70000E940906800F911FDF91CF911F910F9166
:100A8000FF90EF90DF90CF90BF90AF909F908F90AE
:100A90000895EDE2F2E08FE191E09183808312828C
:100AA000138214821582089508950E94710A0E948B
:100AB00054050E946B10CFEBD3E00E94E110209709
:100AC000E1F30E94BF03F9CFCF92DF92EF92FF9242
:100AD0000F931F93CF93DF9341155105C1F06A0126
:100AE0008C01E62EF72EC0E0D0E0D7016D917D019C
:100AF000D801ED91FC910190F081E02DC80109959C
:100B0000892B39F02196CC16DD0679F702C0C0E0BA
:100B1000D0E0CE01DF91CF911F910F91FF90EF9028
:100B2000DF90CF900895DC01ED91FC910190F08170
:100B3000E02D099508958F929F92AF92BF92EF9208
:100B4000FF920F931F93CF93DF93CDB7DEB7A1979B
:100B50000FB6F894DEBF0FBECDBF7C01CB01BA014A
:100B600019A2223008F42AE08E010F5D1F4F822E59
:100B7000912CA12CB12CA50194010E942E12E62FDC
:100B8000622F732F842F952F01501109EA3014F42E
:100B9000E05D01C0E95CD801EC9361157105810548
:100BA000910549F70115110591F0F8010190002018
:100BB000E9F73197AF01401B510BD701ED91FC9143
:100BC0000280F381E02DB801C701099502C080E0E1
:100BD00090E0A1960FB6F894DEBF0FBECDBFDF91B7
:100BE000CF911F910F91FF90EF90BF90AF909F908A
:100BF0008F9008952115310549F4DC01ED91FC91A8
:100C00000190F081E02D642F099508950E949B05C5
:100C100008959A01462F50E060E070E00E94FA05C6
:100C200008954F925F926F927F928F929F92AF92B0
:100C3000BF92CF92DF92EF92FF920F931F93CF93C9
:100C4000DF9300D000D01F92CDB7DEB78B014901F2
:100C50005A0190910401891319C2E8E6F0E0249149
:100C60002D8385C080930401E8E6F0E094919D8394
:100C70009F3F09F459C2913049F120F0923009F4B4
:100C80004DC075C014BC15BC94B5926094BD95B5AB
:100C9000916095BD282F30E0F901EF56FF4FE491A8
:100CA000F0E0EE0FFF1FE155FF4F45915491509337
:100CB000430240934202F901E358FF4FE491E0936D
:100CC000410261E00E94DB0A1D82A8C110928000EF
:100CD000E1E8F0E0108290819860908390819160CB
:100CE0009083282F30E0F901EF56FF4FE491F0E0B8
:100CF000EE0FFF1FE155FF4F4591549150933C0279
:100D000040933B02F901E358FF4FE491E0933A022C
:100D100061E00E94DB0A21E02D83A5C0A0EBB0E0DA
:100D20001C92E1EBF0E010829C9192609C93908188
:100D300091609083282F30E0F901EF56FF4FE49146
:100D4000F0E0EE0FFF1FE155FF4F45915491509396
:100D5000350240933402F901E358FF4FE491E093E8
:100D6000330261E00E94DB0A82E08D831FC12D8186
:100D700022230CF4D9C161E00E94DB0A8D81882313
:100D800009F44CC1823009F06EC010C168E478EEFD
:100D900081E090E0A30192010E94501269017A0162
:100DA00091E0C91AD108E108F1082FEFC216D10469
:100DB000E104F10411F008F050C183E04DC064E299
:100DC00074EF80E090E0A30192010E94501269014B
:100DD0007A0181E0C81AD108E108F10883E010C067
:100DE00062E17AE780E090E0A30192010E94501254
:100DF00069017A0191E0C91AD108E108F10885E09A
:100E00002FEFC216D104E104F104A9F0A0F069E0CB
:100E10007DE380E090E0A30192010E9450126901FD
:100E20007A0181E0C81AD108E108F1089D8199236F
:100E300009F44CC170C12D8121110EC095B5987F68
:100E4000892B85BD81149104A104B10409F04CC023
:100E50002FEF3FEFA90160C0E1EBF0E09081987FB8
:100E6000892B80833CC02801612C712C60E079E0E3
:100E70008DE390E0A30192010E94501269017A0172
:100E800081E0C81AD108E108F108C114D10491E049
:100E9000E906F10488F064E274EF80E090E0A301D9
:100EA00092010E94501269017A0181E0C81AD108AA
:100EB000E108F10883E001C081E09D81913079F47F
:100EC000E1E8F0E09081987F892B80838114910480
:100ED000A104B10449F42FEF3FEFA9012CC0811404
:100EE0009104A104B10471F0D801AA0FBB1FA501A0
:100EF00094010E947E1228EE33E040E050E00E9410
:100F00002E1203C02FEF3FEFA9018D81813099F0A0
:100F1000823019F1811108C1C7BC2093440230937B
:100F200045024093460250934702EEE6F0E080818E
:100F300082608083F9C0D0928900C092880020939B
:100F40003D0230933E0240933F0250934002EFE651
:100F5000F0E0808182608083E7C0C092B30020937C
:100F60003602309337024093380250933902E0E75B
:100F7000F0E0808182608083D7C060E271EA87E020
:100F800090E0A30192010E94501269017A0191E060
:100F9000C91AD108E108F1082FEFC216D104E10403
:100FA000F10411F008F0F2CE82E056CF2801612C56
:100FB000712C60E079E08DE390E0A30192010E9442
:100FC000501229833A834B835C8369017A0181E063
:100FD000C81AD108E108F1089FEFC916D104E1044D
:100FE000F10409F050F681E037CF60E271EA87E062
:100FF00090E0A30192010E94501269017A0181E000
:10100000C81AD108E108F1089FEFC916D104E1041C
:10101000F10411F008F0D3CE82E010CF2801612C4A
:10102000712C60E079E08DE390E0A30192010E94D1
:10103000501229833A834B835C8369017A0181E0F2
:10104000C81AD108E108F1089FEFC916D104E104DC
:10105000F10409F050F681E0F1CE64E274EF80E033
:1010600090E0A30192010E94501269017A0181E08F
:10107000C81AD108E108F1089FEFC916D104E104AC
:10108000F10411F008F0ACCE84E0E6CE9F3F09F009
:101090004BC0E8CD89819A81AB81BC81BB2324F40C
:1010A00081509C4FAF4FBF4F072E7AE0B595A79563
:1010B000979587957A95D1F7702D6C017D0121E088
:1010C000C21AD108E108F10885E0B8CE8FEFC81642
:1010D000D104E104F10409F0E8F684E0ACCE8981A2
:1010E0009A81AB81BC81BB2324F481509C4FAF4FCC
:1010F000BF4F072E7AE0B595A795979587957A9576
:10110000D1F7702D6C017D0121E0C21AD108E108F0
:10111000F10887E0A1CE8FEFC816D104E104F104F5
:1011200009F0E8F686E087CE0F900F900F900F90B1
:101130000F90DF91CF911F910F91FF90EF90DF9073
:10114000CF90BF90AF909F908F907F906F905F9067
:101150004F900895813039F018F0823051F00895A1
:1011600010926E000895EFE6F0E080818D7F80831D
:101170000895E0E7F0E080818D7F808381E08093B7
:10118000B000E1EBF0E08081887F84608083109282
:10119000B3000895CF93C82F80910401C81307C0EE
:1011A000E8E6F0E084919FEF9093040101C08FEF97
:1011B0000E94AA0860E08C2F0E941A0BCF9108951C
:1011C0001F920F920FB60F9211242F933F934F93BC
:1011D0005F936F937F938F939F93AF93BF93EF939F
:1011E000FF938091360290913702A0913802B0911E
:1011F0003902892B8A2B8B2B51F190913302E0918C
:101200003402F091350280818927808380913602F3
:1012100090913702A0913802B09139021816190640
:101220001A061B06C4F48091360290913702A091F1
:101230003802B09139020197A109B10980933602B1
:1012400090933702A0933802B093390204C0809182
:1012500004010E94CA08FF91EF91BF91AF919F9145
:101260008F917F916F915F914F913F912F910F904F
:101270000FBE0F901F9018950895823000F5E82F4B
:10128000F0E0EE0FFF1FEB5FFE4F7183608388235A
:1012900019F0813049F00895E9E6F0E080818C7F13
:1012A000482B4083E89A0895E9E6F0E08081837F47
:1012B000440F551F440F551F482B4083E99A08954A
:1012C0001F920F920FB60F9211242F933F934F93BB
:1012D0005F936F937F938F939F93AF93BF93EF939E
:1012E000FF93E0910501F09106010995FF91EF91BF
:1012F000BF91AF919F918F917F916F915F914F912E
:101300003F912F910F900FBE0F901F9018951F9235
:101310000F920FB60F9211242F933F934F935F9329
:101320006F937F938F939F93AF93BF93EF93FF93AD
:10133000E0910701F09108010995FF91EF91BF91AC
:10134000AF919F918F917F916F915F914F913F915D
:101350002F910F900FBE0F901F9018951F920F9214
:101360000FB60F9211242F933F938F939F93AF93B8
:10137000BF938091490290914A02A0914B02B09193
:101380004C023091480226E0230F2D3720F40296BC
:10139000A11DB11D05C029E8230F0396A11DB11D94
:1013A000209348028093490290934A02A0934B02F3
:1013B000B0934C0280914D0290914E02A0914F0249
:1013C000B09150020196A11DB11D80934D029093E2
:1013D0004E02A0934F02B0935002BF91AF919F91E4
:1013E0008F913F912F910F900FBE0F901F901895E6
:1013F0003FB7F89480914D0290914E02A0914F0218
:10140000B091500226B5A89B05C02F3F19F0019658
:10141000A11DB11D3FBFBA2FA92F982F8827820F7A
:10142000911DA11DB11D880F991FAA1FBB1F880FF9
:10143000991FAA1FBB1FBC01CD01660F771F881F14
:10144000991F08958F929F92AF92BF92CF92DF9291
:10145000EF92FF926B017C010E94F8094B015C0145
:10146000C114D104E104F10439F529C00E94060534
:1014700010C021E0C21AD108E108F10888EE880EF8
:1014800083E0981EA11CB11CC114D104E104F10435
:10149000B1F00E94F809DC01CB0188199909AA0969
:1014A000BB09883E9340A105B10518F7C114D104CA
:1014B000E104F104D9F603C00E940605EACFFF90CB
:1014C000EF90DF90CF90BF90AF909F908F90089556
:1014D0008330910528F0880F991F04970197F1F741
:1014E0000895789484B5826084BD84B5816084BD9C
:1014F00085B5826085BD85B5816085BDEEE6F0E08D
:10150000808181608083E1E8F0E0108280818260E8
:101510008083808181608083E0E8F0E08081816069
:101520008083E1EBF0E0808184608083E0EBF0E099
:10153000808181608083EAE7F0E08081846080833D
:1015400080818260808380818E7F808380818068BB
:1015500080831092C1000895833069F028F48130AF
:10156000B1F08230C1F008958730C9F08830E9F0D9
:10157000843001F506C0E0E8F0E080818F77808359
:101580000895E0E8F0E080818F7D8083089584B540
:101590008F7784BD089584B58F7D84BD0895E0EB79
:1015A000F0E080818F7780830895E0EBF0E0808128
:1015B0008F7D80830895CF93DF9390E0FC01E35803
:1015C000FF4F2491FC01EF56FF4F8491882379F15E
:1015D00090E0880F991FFC01E754FF4FA591B4914B
:1015E000FC01E155FF4FC591D49161110CC09FB72B
:1015F000F8948C91E22FE0958E238C932881E2233E
:10160000E8839FBF14C0623061F49FB7F8948C9157
:10161000322F309583238C93E881E22BE8839FBFA0
:1016200006C08FB7F894EC91E22BEC938FBFDF915B
:10163000CF9108951F93CF93DF93282F30E0F901C6
:10164000E759FF4F8491F901E358FF4F1491F901D5
:10165000EF56FF4FC491CC23D1F0D62F81110E94B9
:10166000AC0AEC2FF0E0EE0FFF1FE155FF4FA59104
:10167000B4918FB7F894D11106C09C91E12FE095F9
:10168000E923EC9303C0EC91E12BEC938FBFDF9146
:10169000CF911F910895CF93DF93282F30E0F90168
:1016A000E759FF4F8491F901E358FF4FD491F901B5
:1016B000EF56FF4FC491CC2391F081110E94AC0AE8
:1016C000EC2FF0E0EE0FFF1FEB55FF4FA591B4910B
:1016D000EC91ED2381E090E021F480E002C080E015
:1016E00090E0DF91CF9108951F920F920FB60F9265
:1016F00011242F933F934F935F936F937F938F9317
:101700009F93AF93BF93EF93FF93E0915102F091BA
:1017100052020995FF91EF91BF91AF919F918F91E7
:101720007F916F915F914F913F912F910F900FBEDD
:101730000F901F901895CF93DF93EC0160E08D819F
:101740000E941A0B60E08E810E941A0BE881F981D9
:101750000488F589E02DCE010995DF91CF91089598
:10176000CF93DF93EC0161E08E810E941A0B61E060
:101770008D810E941A0BE881F9810488F589E02D9A
:10178000CE010995DF91CF910895AF92CF92EF925C
:10179000FF920F931F93CF93DF93EC01102FFE2C3A
:1017A000AE2CC02EE22E00E1262F0E94770E85E29D
:1017B00091E099838883CE010E94140C4F2D612FF4
:1017C000CE010E94030CDF91CF911F910F91FF90EA
:1017D000EF90CF90AF900895CF93DF93EC010E94EC
:1017E000EE0D60E08E810E941A0B60E08D810E94F8
:1017F0001A0BE881F9810488F589E02DCE0109955D
:10180000DF91CF910895DC01ED91FC91048CF58D71
:10181000E02D611102C060E801C068E8483008F0BE
:1018200047E0642B099508950F931F93CF93DF939F
:10183000EC01E881F981048CF58DE02D60E40995D7
:10184000E881F9810688F789E02DCE010995E881C4
:10185000F981028CF38DE02D60ECCE0109958A812F
:101860008823E1F000E010E0E881F981028CF38D3B
:10187000E02D60E0CE0109958B81893040F0E88150
:10188000F981028CF38DE02D60E0CE0109950F5FA8
:101890001F4F8A8190E00817190734F3E881F98116
:1018A000008CF18DE02DCE010995DF91CF911F9134
:1018B0000F910895DC0112962C911297421748F46B
:1018C000242F462FED91FC91068CF78DE02D622F91
:1018D00009950895362FDC01ED91FC910480F58186
:1018E000E02D211120E8642F622B432F09950895E4
:1018F0000F931F93DC01842F962F9F70F801E90F3F
:10190000F11D4491ED91FC9111970088F189E02D32
:10191000682FCD0109951F910F9108959F92AF9265
:10192000BF92CF92DF92EF92FF920F931F93CF93CC
:10193000DF937C01862F972FC42ED70114964C91EC
:10194000442339F1C1E0D12C0F2EFAE0AF2EB12C97
:10195000F02D96010C2E02C0359527950A94E2F7DA
:1019600021704C1BB5010E941A12D62F972ED70159
:10197000ED91FC910680F781E02D03EC10E0682FDB
:10198000C70109958D2F992DCF5FF70144814C1721
:1019900000F7DF91CF911F910F91FF90EF90DF90B3
:1019A000CF90BF90AF909F900895242FDC01ED91D0
:1019B000FC910088F189E02D40E009950895EF92AF
:1019C000FF920F931F93CF93DF934423B1F0D42F53
:1019D0007C01062F172FC0E0F8014491D701ED914B
:1019E000FC910088F189E02D20E06C2FC70109955A
:1019F000CF5F0F5F1F4FDC13EFCFDF91CF911F91B0
:101A00000F91FF90EF9008953F924F925F926F92E7
:101A10007F928F929F92AF92BF92CF92DF92EF927E
:101A2000FF920F931F93CF93DF93EC01AC81B0E053
:101A3000A22EB12CFD01EA19FB091E161F060CF09F
:101A400044C0FB013081332309F43FC03A017C01DB
:101A50006B01FFEFCF1ADF0A522EC0E0D0E08824DE
:101A60008394912C44244394312C06C0F601319187
:101A70006F015394332349F1E32F330FFF0BB097DA
:101A8000E00FF11F4491AC1BBD0B1197C40102C0C4
:101A9000880F991FAA95E2F786219721242D892B7B
:101AA00009F4232DD701ED91FC910088F189E02DF7
:101AB000652DC70109952196F701A481B0E0CD01FC
:101AC0008A199B09C817D9078CF2DF91CF911F9112
:101AD0000F91FF90EF90DF90CF90BF90AF909F90CD
:101AE0008F907F906F905F904F903F90089560E04F
:101AF00070E0CB01089508951F93CF93DF93EC011D
:101B0000162FE881F9810688F789E02D0995E8818B
:101B1000F981028CF38DE02D612FCE010995E881CA
:101B2000F981008CF18DE02DCE010995DF91CF91E7
:101B30001F9108950F931F93CF93DF93EC01162FFE
:101B4000042FE881F981048CF58DE02D64E409957A
:101B5000E881F9810688F789E02DCE010995612F8A
:101B6000606CE881F981028CF38DE02DCE0109953E
:101B7000E881F981028CF38DE02D602FCE0109956B
:101B8000E881F981008CF18DE02DCE010995DF917E
:101B9000CF911F910F910895CF93DF93EC0160E0F7
:101BA0008F810E941A0BE881F9810488F589E02D64
:101BB000CE010995DF91CF910895CF93DF93EC018A
:101BC00061E08F810E941A0BE881F9810488F58910
:101BD000E02DCE010995DF91CF910895FF920F93EB
:101BE0001F93CF93DF93EC01F62E08E010E060E046
:101BF0008E810E941A0BE881F9810488F589E02D15
:101C0000CE0109956F2D61708D810E941A0BE881BC
:101C1000F9810488F589E02DCE010995F69461E0FB
:101C20008E810E941A0BE881F9810488F589E02DE4
:101C3000CE01099501501109D1F6E881F981048896
:101C4000F589E02DCE010995DF91CF911F910F917C
:101C5000FF900895DF92EF92FF920F931F93CF931F
:101C6000DF93EC0160E08D810E94DB0A61E08D81F1
:101C70000E941A0B6894EE24E3F8F12CD12C0D2D60
:101C800010E015950795D02E60E08E810E941A0B0A
:101C9000E881F9810488F589E02DCE0109958D81CF
:101CA0000E944B0B892B19F0802F8068D82E61E0A1
:101CB0008E810E941A0BE881F9810488F589E02D54
:101CC000CE01099581E0E81AF108C9F661E08D813D
:101CD0000E94DB0A60E08D810E941A0B8D2DDF913E
:101CE000CF911F910F91FF90EF90DF900895EF92A9
:101CF0000F93CF93DF93FC01862FC42FD22F2BE4B9
:101D000031E03183208398E0938365834683D783D2
:101D10000283E48261E00E94DB0A61E08C2F0E9472
:101D2000DB0A61E08D2F0E94DB0A61E08D2F0E94AB
:101D30001A0B61E08C2F0E941A0BDF91CF910F914B
:101D4000EF900895CF93DF93FC01DC01149680E1BE
:101D5000ED0119928A95E9F77183608342832383A9
:101D6000DF91CF910895242FFC01E60FF11D4483EC
:101D7000DC018D919C91DC01ED91FC910480F58159
:101D8000E02D462F622F099508950F931F93CF934F
:101D9000DF93FC012281222371F08C01C0E0D62F59
:101DA000D1954D2F6C2FC8010E94B30ECF5FF80163
:101DB0008281C817B0F3DF91CF911F910F910895E1
:101DC00060E083E592E00E94C50E0895AF92BF9255
:101DD000CF92DF92EF92FF920F931F93CF93DF93F7
:101DE0007C01A22E8B01000F111F600F711F8B0150
:101DF000000F111FC42FD52FB12CCE01B8010E94A6
:101E000006126C01C017D10748F0A11007C040E0CE
:101E10006B2D83E592E00E94B30E3FC09601ABEAC2
:101E2000BAEA0E946F129695879596958795FC0160
:101E3000EE0FFF1F8E0F9F1F880F991F281B390B56
:101E4000253028F5A90155279601241B350B0E9442
:101E50006F129695879596958795F701E80FF91F6C
:101E60008081082E000C990BFC01EE0FFF1FEE0F76
:101E7000FF1F8E0F9F1F840F951FFC01ED52FF4F18
:101E800044916B2D83E592E00E94B30E06C040E0C2
:101E90006B2D83E592E00E94B30EB394219630E15E
:101EA000B312ABCFDF91CF911F910F91FF90EF90C5
:101EB000DF90CF90BF90AF900895EF92FF920F9375
:101EC0001F93CF93DF9300E0EE24E394F12CC0E066
:101ED000D0E010E00E94E3128F709927892B41F423
:101EE000C7010C2E02C0880F991F0A94E2F7182B25
:101EF0002196C730D10571F7412F602F83E592E01D
:101F00000E94B30E0F5F003111F7DF91CF911F9147
:101F10000F91FF90EF900895CF93DF93D82F4FE765
:101F200060E083E592E00E94B30E41E461E083E566
:101F300092E00E94B30EC2E08EEF8C0F8D1738F442
:101F40004DE56C2F83E592E00E94B30E06C041E49C
:101F50006C2F83E592E00E94B30ECF5FCE3061F725
:101F600041E46EE083E592E00E94B30E4FE76FE03C
:101F700083E592E00E94B30EDF91CF910895EF9236
:101F80000F930F2EF7E0EF2EF02D01E020E14AE055
:101F900069E087E692E00E94C50B28E040E167E631
:101FA00072E083E592E00E94A20E0F91EF900895F7
:101FB000882391F161E087E00E94DB0A61E08AE01A
:101FC0000E94DB0A61E089E00E94DB0A84E690E07F
:101FD0000E94680A61E087E00E941A0B61E08AE0D3
:101FE0000E941A0B61E089E00E941A0B65E070E024
:101FF00080E090E00E94220A47E061E087E692E0FC
:102000000E94030C87E692E00E94140C60E083E5D6
:1020100092E00E94C50E089587E692E00E94140C9B
:1020200060E083E592E00E94C50E40E060E087E654
:1020300092E00E94030C84E690E00E94680A60E04F
:102040008AE00E941A0B60E089E00E941A0B60E0AF
:1020500087E00E941A0B60E08AE00E94DB0A60E0E1
:1020600089E00E94DB0A60E087E00E94DB0A0895B5
:1020700081E080936F02089587B1807F87B988B12E
:102080008F6088B984E690E00E94680A86B198B1B2
:10209000907F98B980958F700895E82FF0E0EE0F4B
:1020A000FF1FE059FE4F0190F081E02D8491809355
:1020B0007402882369F03196A5E7B2E023EB32E0A1
:1020C00084918D93882321F03196A217B307C1F72D
:1020D0001092B30208951F93CF93DF930E943C1098
:1020E000182F61E08DE00E94DB0A61E08DE00E9424
:1020F0001A0B60E082E00E94DB0A61E088E00E9447
:10210000DB0A81E00E94D80F1F921F938DE691E0B9
:102110009F938F931F9280E48F93C4E7D2E0DF9365
:10212000CF930E94F312FE0101900020E9F731974E
:10213000BF016457724020E040E050E0CE010E94B1
:10214000E60E62E370E080E090E00E94220A22E363
:1021500030E040E050E060EE76E088E00E9411065A
:102160006CED75E080E090E00E94220A812F0E94D1
:102170004D1009900020E9F72197C457D240D09321
:102180007302C0937202CE01880F991FC80FD91F26
:10219000CC0FDD1FD0937102C093700240E050E07D
:1021A00068E370E180E00E943D098DB79EB7089614
:1021B0000FB6F8949EBF0FBE8DBFDF91CF911F91D8
:1021C0000895CF92DF92EF92FF920F931F93CF93D8
:1021D000DF9360E088E00E941A0B61E088E00E94D3
:1021E000DB0A81E00E94D80F61E08DE00E94DB0AEB
:1021F00061E08DE00E941A0BC4EFD1E00F2EF8E2EF
:10220000CF2ED12CF02D0F2EF0E9EF2EFF24F394DA
:10221000F02DF89480916F02882321F010926F02C4
:10222000EC9601C02A977894C83E23E0D20730F498
:102230000E94E00E88E00E94CA083AC0C03689E0D9
:10224000D807F0F40E945D0F0E94E3128C010E94F7
:10225000E312FC01C801B6010E941A128C01065F4C
:102260001F4F012E000C220B330BCF01B7010E9430
:102270001A12A9019801BC0188E00E94110618C039
:102280009E012056394036952795369527953695E7
:102290002795ABE7B4E10E946F12969587950E944F
:1022A0008C0F20E030E0A901BE0188E00E941106F9
:1022B00069E170E080E090E00E94220ACE0101977F
:1022C0008738934108F4A5CFCD2B09F470C088E07E
:1022D0000E94CA088CE00E948C0F6CE271E080E0E2
:1022E00090E00E94220AC3E0D0E020E030E0A901A3
:1022F00068EE73E088E00E9411068CE00E948C0F6B
:1023000064E670E080E090E00E94220A88E00E948B
:10231000CA080E94E00E64E670E080E090E00E944F
:10232000220A219711F788E00E94CA086091720280
:102330007091730221E040E050E084E792E00E9457
:10234000E60E68EE73E080E090E00E94220A0091C1
:102350007002109171028EEE92E0B8010E94061296
:10236000081B190B780182E0E81A8DEFF80AF9F0E2
:10237000C0E0D0E002521D4FDD24D394C12C2D2D9E
:10238000C017D10708F02C2D609172027091730272
:10239000AE0184E792E00E94E60E64E170E080E026
:1023A00090E00E94220A2196CE15DF0540F360E0FE
:1023B00088E00E941A0B60E088E00E94DB0A60E07F
:1023C0008DE00E941A0B60E08DE00E94DB0A80E045
:1023D0000E94D80F83B7817F846083BF83B78160F9
:1023E00083BF83B7816083BF889583B78E7F83BFA8
:1023F00083B78E7F83BF10926F02DF91CF911F91C1
:102400000F91FF90EF90DF90CF900895AA1BBB1B18
:1024100051E107C0AA1FBB1FA617B70710F0A61BE4
:10242000B70B881F991F5A95A9F780959095BC0105
:10243000CD01089597FB072E16F4009407D077FD81
:1024400009D00E94061207FC05D03EF490958195B4
:102450009F4F0895709561957F4F0895A1E21A2EC0
:10246000AA1BBB1BFD010DC0AA1FBB1FEE1FFF1F38
:10247000A217B307E407F50720F0A21BB30BE40B88
:10248000F50B661F771F881F991F1A9469F76095CF
:102490007095809590959B01AC01BD01CF01089589
:1024A000052E97FB1EF400940E94671257FD07D07B
:1024B0000E942E1207FC03D04EF40C946712509524
:1024C0004095309521953F4F4F4F5F4F0895909520
:1024D0008095709561957F4F8F4F9F4F0895A29F74
:1024E000B001B39FC001A39F700D811D1124911DE8
:1024F000B29F700D811D1124911D08950E946F12CD
:10250000A59F900DB49F900DA49F800D911D112447
:102510000895B7FF0C947E120E947E12821B930BCB
:102520000895EE0FFF1F0590F491E02D09948F920E
:102530009F92AF92BF92CF92DF92EF92FF92CF9392
:10254000DF93EC01688179818A819B816115710536
:102550008105910521F464E279ED8BE597E02DE1A9
:1025600033EF41E050E00E94501249015A019B01B3
:10257000AC01A7EAB1E40E947E126B017C01ACEED3
:10258000B4EFA50194010E948C12DC01CB018C0DEB
:102590009D1DAE1DBF1DB7FF03C00197A109B04827
:1025A00088839983AA83BB839F77DF91CF91FF9024
:1025B000EF90DF90CF90BF90AF909F908F90089555
:1025C0000E949712089580E091E00E94971208956A
:1025D000A0E0B0E08093000190930101A09302017C
:1025E000B09303010895AEE0B0E0E9EFF2E10C949E
:1025F000C2150D891E898F89988D26E02C831A8338
:10260000098397FF02C080E090E801979E838D8345
:10261000AE01455E5F4F698D7A8DCE0101960E94B5
:1026200023134D815E8157FD0AC02F8138854217E3
:1026300053070CF49A01F801E20FF31F10822E9653
:10264000E4E00C94DE15ABE0B0E0E9E2F3E10C94D9
:10265000B4156C017B018A01FC011782168283810B
:1026600081FFCCC1CE0101963C01F6019381F701B7
:1026700093FD859193FF81917F01882309F4BAC16D
:10268000853239F493FD859193FF81917F018532E5
:1026900029F4B60190E00E941A15E7CF912C212C65
:1026A000312CFFE1F315D8F08B3279F038F4803219
:1026B00079F08332A1F4232D20611DC08D3261F0A9
:1026C000803369F4232D216016C0832D8260382E5B
:1026D000E32DE4603E2E2AC0F32DF8601DC037FCC8
:1026E0002DC020ED280F2A3040F08E32B9F436FC90
:1026F00081C1232D2064322E19C036FE06C08AE027
:10270000989E200D1124922E11C0EAE02E9E200DDD
:102710001124222EF32DF0623F2E08C08C3621F4B6
:10272000832D8068382E02C0883641F4F70193FD6E
:10273000859193FF81917F018111B3CF982F9F7D68
:102740009554933028F40C5F1F4F9FE399830DC07D
:10275000833631F0833771F0833509F059C021C0D9
:10276000F801808189830E5F1F4F88248394912C08
:10277000530113C02801F2E04F0E511CF801A08054
:10278000B18036FE03C0692D70E002C06FEF7FEFAD
:10279000C5010E940F154C018201F32DFF773F2EDA
:1027A00016C0280122E0420E511CF801A080B18021
:1027B00036FE03C0692D70E002C06FEF7FEFC501E8
:1027C0000E9404154C01F32DF0683F2E820133FC6A
:1027D0001BC0822D90E088169906B0F4B60180E205
:1027E00090E00E941A152A94F4CFF50137FC8591E8
:1027F00037FE81915F01B60190E00E941A15211009
:102800002A9421E0821A91088114910471F7E8C09A
:10281000843611F0893641F5F80137FE07C0608132
:102820007181828193810C5F1F4F08C0608171812B
:10283000072E000C880B990B0E5F1F4FF32DFF76B0
:102840003F2E97FF09C090958095709561957F4FB9
:102850008F4F9F4FF0683F2E2AE030E0A3010E9487
:102860005615882E861845C0853731F4232D2F7EC6
:10287000B22E2AE030E025C0932D997FB92E8F36F5
:10288000C1F018F4883579F0B5C0803719F0883771
:1028900021F0B0C0E92FE061BE2EB4FE0DC0FB2DCB
:1028A000F460BF2E09C034FE0AC0292F2660B22E64
:1028B00006C028E030E005C020E130E002C020E1A1
:1028C00032E0F801B7FE07C0608171818281938197
:1028D0000C5F1F4F06C06081718180E090E00E5F49
:1028E0001F4FA3010E945615882E8618FB2DFF77D7
:1028F0003F2E36FE0DC0232D2E7FA22E891458F4B4
:1029000034FE0BC032FC09C0832D8E7EA82E05C07C
:10291000B82CA32C03C0B82C01C0B92CA4FE0FC046
:10292000FE01E80DF11D8081803321F49A2D997EFE
:10293000A92E09C0A2FE06C0B394B39404C08A2D88
:10294000867809F0B394A3FC11C0A0FE06C0B214AF
:1029500088F4280C922C9B180EC0B21460F4B601B7
:1029600080E290E00E941A15B394F7CFB21418F4E5
:102970002B1802C0982C212CA4FE10C0B60180E3B5
:1029800090E00E941A15A2FE17C0A1FC03C088E7C0
:1029900090E002C088E590E0B6010CC08A2D8678F0
:1029A00059F0A1FE02C08BE201C080E2A7FC8DE2DB
:1029B000B60190E00E941A15891438F4B60180E33C
:1029C00090E00E941A159A94F7CF8A94F301E80DCB
:1029D000F11D8081B60190E00E941A158110F5CF9B
:1029E000222009F442CEB60180E290E00E941A153E
:1029F0002A94F6CFF6018681978102C08FEF9FEF70
:102A00002B96E2E10C94D015FC01059061507040CA
:102A10000110D8F7809590958E0F9F1F0895FC01A7
:102A20006150704001900110D8F7809590958E0FFD
:102A30009F1F08950F931F93CF93DF93FB01238173
:102A400021FD03C08FEF9FEF2CC022FF16C04681EF
:102A50005781248135814217530744F4A081B18105
:102A60009D012F5F3F4F318320838C9326813781D7
:102A70002F5F3F4F3783268314C08B01EC01FB018E
:102A80000084F185E02D0995892BE1F6D801169691
:102A90008D919C911797019617969C938E931697FC
:102AA000CE01DF91CF911F910F910895FA01AA27CE
:102AB000283051F1203181F1E8946F936E7F6E5F81
:102AC0007F4F8F4F9F4FAF4FB1E03ED0B4E03CD02F
:102AD000670F781F891F9A1FA11D680F791F8A1F12
:102AE000911DA11D6A0F711D811D911DA11D20D079
:102AF00009F468943F912AE0269F11243019305D33
:102B00003193DEF6CF010895462F4770405D419323
:102B1000B3E00FD0C9F7F6CF462F4F70405D4A3370
:102B200018F0495D31FD4052419302D0A9F7EACF38
:102B3000B4E0A6959795879577956795BA95C9F767
:102B400000976105710508959B01AC010A2E06945A
:102B50005795479537952795BA95C9F7620F731F13
:102B6000841F951FA01D08952F923F924F925F9250
:102B70006F927F928F929F92AF92BF92CF92DF928D
:102B8000EF92FF920F931F93CF93DF93CDB7DEB7F2
:102B9000CA1BDB0B0FB6F894DEBF0FBECDBF099486
:102BA0002A88398848885F846E847D848C849B84DD
:102BB000AA84B984C884DF80EE80FD800C811B81EB
:102BC000AA81B981CE0FD11D0FB6F894DEBF0FBE1A
:0A2BD000CDBFED010895F894FFCF8A
:102BDA0001000000FF3C093C09000000001C0464DD
:102BEA0005AD03F8037F0399038B03000000000778
:102BFA000500000000030C140C5A0C780C8E0CD53E
:102C0A000CDF0C040D6A0C770D7B0D9B0BB00BECE3
:102C1A000B7C0D9A0D2A0E00000000030C140C5AAE
:102C2A000C780C8E0CD50CDF0C040D6A0C770D7B1E
:102C3A000DCC0DDD0DEE0D7C0D9A0D2A0E256400CE
:102C4A008A06820673066A0649063E063406260680
:102C5A001E0615060A06FF05F405E905DE05D30575
:00000001FF
